:10000000EEC1000014C2000012C2000010C20000C5
:100010000EC200000CC200000AC2000008C20000AC
:1000200006C2000004C200000C94EA080C948D097A
:10003000FEC10000FCC10000FAC10000F8C10000D0
:10004000F6C10000F4C10000F2C10000F0C10000E0
:10005000EEC10000ECC10000EAC10000DFC70000F3
:10006000E6C10000E4C10000E2C10000E0C1000000
:10007000DEC10000DCC10000DAC10000D8C1000010
:10008000D6C10000D4C10000D2C10000D0C1000020
:10009000CEC10000CCC10000CAC10000C8C1000030
:1000A000C6C10000C4C10000C2C1000086066806C7
:1000B000A806A806A8068E069806A806A006A80602
:1000C00074067C06012302230423082380230129CC
:1000D0000229042908294026802640298029102346
:1000E00020234023802F402F202F102F022F012F5D
:1000F00010292029402C7DFD7DFB7DF77DEF7DDFE4
:100100007E7F7EBF7EDF7EEF7EFD7EFE7DFE000178
:1001100000005D031200020000E5019600220200CB
:100120000803550021020039020900220300D00211
:100130003800210300520209002204007B0255000E
:100140002104006B020900030000E101040103091E
:1001500004C701180203090487013E030309047957
:10016000010C0403090469010E0E035300650072BB
:1001700000690061006C0000000C033100320033A4
:10018000003400350000003E035300650072006932
:100190000061006C002B004B006500790062006F6D
:1001A000006100720064002B004D006F0075007349
:1001B0000065002B004A006F00790073007400692D
:1001C0000063006B00000018035400650065006EBA
:1001D00000730079006400750069006E006F000014
:1001E000000403090409029600050100C032080B4F
:1001F00000020202010409040000010202010005DC
:10020000240010010524010001042402060524062F
:1002100000010705820310004009040100020A00E2
:1002200000000705030240000007058402400000AB
:10023000090402000103010100092111010001224A
:1002400055000705810308000109040300010301AB
:100250000200092111010001223800070585030869
:10026000000209040400010300000009211101003B
:1002700001225500070586030C000105010904A1B0
:100280000115002501750195200509190129208115
:1002900002150025073500463B01750495016514DC
:1002A00005010939814205010901A100150026FF58
:1002B00003750A950409300931093209358102C0F4
:1002C000150026FF03750A9502093609368102C01A
:1002D00005010902A10105091901290815002501D7
:1002E0009508750181020501093009310938158128
:1002F000257F750895038106050C0A3802158125AE
:100300007F750895018106C005010906A1017501E7
:100310009508050719E029E71500250181029508D0
:10032000750115002501050C09E909EA09E209CD65
:1003300009B509B609B709B881029505750105081F
:100340001901290591029501750391039506750818
:100350001500257F05071900297F8100C0120100C3
:1003600002EF020140C0168704020101020301C12D
:1003700006C11280368136C106C1162C5E746061DA
:100380006264346667656E362D3738271E1F20215C
:1003900022232425267333762E77785F44454647FB
:1003A00048494A4B4C4D4E4F505152535455565755
:1003B00058595A5B5C5D2F3130636D350405060773
:1003C00008090A0B0C0D0E0F101112131415161735
:1003D00018191A1B1C1D6F7170752A00C50E112487
:1003E0001FBECFEFDAE0DEBFCDBF12E0A0E0B1E08C
:1003F000E0E7FEE102C005900D92AA36B107D9F7F9
:1004000023E0AAE6B2E001C01D92A33AB207E1F7E9
:1004100011E0CFEED1E004C02197FE010E94300F21
:10042000CE3ED107C9F70E94660B0C94360FE8CD7B
:10043000CF93DF931F92CDB7DEB76983DC01ED91D7
:10044000FC910280F381E02D41E050E0BE016F5F3E
:100450007F4F09950F90DF91CF9108950F931F93D0
:10046000CF93DF93A2E2B1E024E333E08D919D913D
:100470009927FC01A8D4CEE0D1E040E050E0E9911A
:10048000F991FF2733D58901040F151F61E0E111B0
:1004900060E0F80160834F5F5F4F4A30510579F7A4
:1004A000FC018BD4265F3F4FF3E02C353F07F1F67C
:1004B000DF91CF911F910F9108953F924F925F92DC
:1004C0006F927F928F929F92AF92BF92CF92DF9264
:1004D000EF92FF920F931F93CF93DF938CE0C82E80
:1004E00083E0D82E9CE6A92E92E0B92E24E3822E3A
:1004F00023E0922E00E010E038EE432E33E0532E3E
:10050000612C712CE12CF12CC0E0D0E0D601AC0FB5
:10051000BD1F3C9081E0381233C0F401EC0FFD1F89
:100520008081811102C01C922BC0D8D5F501EE0D3F
:10053000FF1D2081318142815381621B730B840B2B
:10054000950BA30192010E940E0F809108019091DA
:100550000901A0910A01B0910B0182179307A4072A
:10056000B50770F4309284032AE0209FC001219FD8
:10057000900D1124C80FD91FC45ADC4F388217C000
:10058000219684E0E80EF11CCA30D10509F0BECFF7
:100590000F5F1F4F8AE0C80ED11C88E2A80EB11C65
:1005A0008AE0880E911C0430110509F0ABCFDF9171
:1005B000CF911F910F91FF90EF90DF90CF90BF9060
:1005C000AF909F908F907F906F905F904F903F90F3
:1005D0000895CF92DF92EF92FF92CF93DF934CE09A
:1005E00053E0ACE6B2E0C4E3D3E0C12CD12C20E070
:1005F00030E0CE01820F931FFC016081613089F4ED
:10060000CA01820F931FFC01708171110AC06083BF
:1006100065D57D01EC0CFD1CF7016083718382833D
:1006200093832F5F3F4FF4E0CF0ED11C2A3031056A
:1006300001F7465F5F4F98962A9683E04433580748
:10064000A1F6DF91CF91FF90EF90DF90CF900895CA
:1006500040E050E080E020E030E0B901640F751F19
:10066000FB01EC5CFC4F9081913029F4FB01E45AD2
:10067000FC4F908381E02F5F3F4F2A30310569F7AF
:10068000465F5F4F4832510531F70895AC01485D30
:100690005F4F9C01265F3F4FFC016193CF01E21742
:1006A000F307D1F7E417F507A1F7089560E08CE5AB
:1006B00093E0ECDF60E084E393E0E8DF60E08CE06F
:1006C00093E0E4CF0F931F93CF93DF9340E855E27D
:1006D00060E070E089E993E00E94EA0CCEE0D1E0AE
:1006E0008881229641D381E0C232D807C9F7C2E29D
:1006F000D1E08E018881C9D22296D801ED91FC917A
:10070000FF275BD3B1E0CC32DB0799F780910C0176
:10071000BCD2DF91CF911F910F91C8CFCF92DF92C2
:10072000EF92FF920F931F93CF93DF93CDB7DEB776
:10073000C756D1090FB6F894DEBF0FBECDBF6CE52A
:1007400073E021E300E010E030E281E4F82E80E085
:1007500090E0FB01E80FF91F4081442329F1F801E3
:10076000319641E050E04C0F5D1F400F511FDA0100
:100770002C93A8014E5F5F4FA1E0B0E0AC0FBD1F0E
:10078000EA0FFB1F8930910511F4F08203C0B1E339
:10079000B80FB0838A010F5F1F4FE1E0F0E0EC0F6C
:1007A000FD1FE40FF51F308301968A30910589F60D
:1007B000665F7F4F2F5F253351F6FE01E00FF11F7B
:1007C0008AE08083FE0131966F017F01C7018C1999
:1007D0009D09801791073CF4D7016D917D0189E94E
:1007E00093E026DEF3CFC959DF4F0FB6F894DEBF92
:1007F0000FBECDBFDF91CF911F910F91FF90EF9072
:10080000DF90CF900895AF92BF92CF92DF92EF9298
:10081000FF920F931F93CF93DF93CDB7DEB7A897C7
:100820000FB6F894DEBF0FBECDBF20E030E000E091
:1008300010E080E090E0AC01420F531FFA01E45A4F
:10084000FC4F6081662379F0FA01ED5DFD4F408138
:10085000E1E0F0E0EC0FFD1FE00FF11F40834423C7
:1008600011F00F5F1F4F01968A30910521F7265F27
:100870003F4F28323105E9F6CE0101965C01E12CAB
:10088000F12CE016F106B9F0F501C1905F010C2CD6
:10089000000CDD08B60183E993E00E942E0EE114FE
:1008A000F10429F0B60183E993E00E94820EFFEF84
:1008B000EF1AFF0AE6CF83E993E0A8960FB6F89403
:1008C000DEBF0FBECDBFDF91CF911F910F91FF9083
:1008D000EF90DF90CF90BF90AF900C94B20EEF925C
:1008E000FF920F931F93CF93DF9300D000D000D0DF
:1008F000CDB7DEB780E889831A821B821C821D82F5
:100900001E8240E050E020E030E0C901840F951FD6
:10091000FC01E45AFC4F6081662389F0FC01E5503C
:10092000FE4F6081E1E0F0E0EC0FFD1FE60FF11DEE
:10093000DC01AD52BE4F60818C91862B80832F5F8E
:100940003F4F2A30310509F7465F5F4F4832510566
:10095000D1F68E010F5F1F4F7E0187E0E80EF11C7C
:10096000F80161918F0189E993E062DD0E151F05A1
:10097000B9F726960FB6F894DEBF0FBECDBFDF9154
:10098000CF911F910F91FF90EF900895EF92FF92FA
:100990000F931F93CF93DF9300D000D0CDB7DEB776
:1009A000198280E48A8380E88B8380EC8C8340E02A
:1009B00050E020E030E0C901840F951FFC01E45AAB
:1009C000FC4F6081662389F0FC01E555FE4F608194
:1009D000E1E0F0E0EC0FFD1FE60FF11DDC01AD578B
:1009E000BE4F60818C91862B80832F5F3F4F2A30D2
:1009F000310509F7465F5F4F48325105D1F68E0148
:100A00000F5F1F4F7E0185E0E80EF11CF801619138
:100A10008F01862F8F7319F089E993E009DD0E1598
:100A20001F05A1F760E089E993E00F900F900F9008
:100A30000F90DF91CF911F910F91FF90EF90F8CC25
:100A4000EF92FF920F931F93CF93DF9300D01F92EB
:100A5000CDB7DEB719821A821B8240E050E020E059
:100A600030E0C901840F951FFC01E45AFC4F6081FE
:100A7000662389F0FC01E55AFE4F6081E1E0F0E079
:100A8000EC0FFD1FE60FF11DDC01AD5CBE4F608178
:100A90008C91862B80832F5F3F4F2A30310509F7D9
:100AA000465F5F4F48325105D1F68E010F5F1F4FF1
:100AB0007E0184E0E80EF11CF80161918F0189E963
:100AC00093E0B6DC0E151F05B9F76FEF89E993E0E7
:100AD0000F900F900F90DF91CF911F910F91FF908A
:100AE000EF90A6CC80916B02813009F48CDE80916E
:100AF0006B02823009F4F3CE833009F447CF84309F
:100B000009F49ECF0BCECF93DF93CDB7DEB72A97F4
:100B10000FB6F894DEBF0FBECDBF80912A01909131
:100B20002B019927FC014FD1AEE0B1E09E012F5F70
:100B30003F4FED91FD91FF27D9D141E0E11140E018
:100B4000F90141939F01F1E0A232BF0791F7FC0147
:100B500034D18D81880F9C81890F880F9B81980FDC
:100B6000EA85EE0F8985E80FEE0F8885E80F95304E
:100B700018F490936B0202C010926B0280916A028B
:100B8000E81791F0E0936A02F0E0E050FF4F6081D7
:100B900070E080910C012A960FB6F894DEBF0FBE6C
:100BA000CDBFDF91CF9182C02A960FB6F894DEBFF9
:100BB0000FBECDBFDF91CF910895A5DF4FDC8091AF
:100BC0008403811106C079DC80918403811101C006
:100BD00000DD80918403882339F03ADD811104C05F
:100BE00081DF64DD1092840308951DBA10926800BD
:100BF0001CBC10BE1FBA10927A0010926E001092A8
:100C00006F0010927100109272001092C900ECEB0C
:100C1000F0E0108214B817B81AB81DB810BA1082D4
:100C200015B818B81BB81EB811BA0895F894E1E6C3
:100C3000F0E020E82083108283E084BD85BDEEE6ED
:100C4000F0E080818160808381E08093800092E089
:100C50009093810080939000909391009093C000B6
:100C600094E09093C1008093C2008093C3001092DF
:100C7000C40086E880937A0020937B0010927E0067
:100C800010927D004AD278940895893170F4E4EC92
:100C9000F0E0880FE80FF11D9591E491F0E08FB737
:100CA000F8942181922B91838FBF08950F931F9306
:100CB000CF93C82F8B01E9DF8C2F90E0FC01349794
:100CC000EC30F10508F044C0EA5AFF4F0C94300FA5
:100CD0000115110521F4589884B58F7D03C008BD16
:100CE00084B5806284BD3CC0109389000093880065
:100CF00080918000806807C010938B0000938A0069
:100D0000809180008062809380002AC010938D00C3
:100D100000938C00809180008860F5CF109399003B
:100D2000009398008091900080688093900018C094
:100D30000093CF008091C00080688093C00010C0F5
:100D40000093D2008091C20088608093C20008C0E6
:100D5000EC2FF0E00038110514F435D001C02DD08F
:100D6000CF911F910F910895893130F5A5EFA80F0C
:100D7000AC3048F4E6EFF0E0AA0FEA0FF11DA591C0
:100D8000B0E0959103C09FEFA0E0B0E0E4ECF0E0AC
:100D9000880FE80FF11D2591E491F0E03FB7F8943A
:100DA0008181422F4095842381838281282B228355
:100DB000EC91E923EC933FBF0895E93150F4EE0F35
:100DC000E651F94F0994E93120F4EE0FE45EF84F53
:100DD00009940895289A0895299A08952A9A0895B9
:100DE0002B9A08952F9A6AC0589A58C0599A089514
:100DF0005A9A08955B9A0895469A66C0479A6AC0BF
:100E00005E9A08955F9A6CC02C9A08952D9A4AC0F4
:100E10002E9A4EC08F9A08958E9A08958D9A0895AD
:100E20008C9A0895899A0895889A08955C9A0895ED
:100E30005D9A0895769A08952898089529980895B6
:100E40002A9808952B9808952F9838C0589826C04E
:100E5000599808955A9808955B980895469834C013
:100E6000479838C05E9808955F983AC02C980895C6
:100E70002D9818C02E981CC08F9808958E980895AC
:100E80008D9808958C980895899808958898089564
:100E90005C9808955D98089576980895E4B5EF7D7F
:100EA000E4BD0895E0918000EF77E093800008951D
:100EB000E0918000EF7DE09380000895E091800054
:100EC000E77FE09380000895E0919000EF77E09352
:100ED00090000895E091C000EF77E093C00008957E
:100EE000E091C200E77FE093C2000895E93130F459
:100EF000EE0FEE0FFF27EE57F84F0994EE270895F7
:100F0000E1E00895E3B1E170D9F70895E3B1E2704B
:100F1000B9F70895E3B1E47099F70895E3B1E87083
:100F200079F70895E3B1E07859F70895E9B1E170F0
:100F300039F70895E9B1E27019F70895E9B1E4705D
:100F4000F9F60895E9B1E870D9F60895E6B1E074CC
:100F5000B9F60895E6B1E07899F60895E9B1E0743C
:100F600079F60895E9B1E07859F60895E3B1E071B2
:100F700039F60895E3B1E07219F60895E3B1E0742B
:100F800029F50895EFB1E07809F50895EFB1E0741F
:100F9000E9F40895EFB1E072C9F40895EFB1E0719A
:100FA000A9F40895EFB1E27089F40895EFB1E1700A
:100FB00069F40895E9B1E07149F40895E9B1E07286
:100FC00029F40895ECB1E07409F40895E1E008957E
:100FD000F89484B7877F84BF80916000806180939C
:100FE00060001092600080E29EE40197F1F781E0DA
:100FF0008093E00080E28093D80080E69AEE01972B
:10100000F1F7F3DD0C94003FFFCFF894EEDD80E6BE
:101010009AEE0197F1F70C940000FFCF8F938FB7F2
:101020008F93809185038D5F8D37D0F480938503F6
:10103000809186038F5F80938603D8F08091870329
:101040008F4F80938703A8F0809188038F4F809300
:10105000880378F0809189038F4F8093890309C0BA
:101060008D5780938503809186038E5F80938603DE
:1010700028F780918A038C5F80938A0358F08091CF
:101080008B038F4F80938B0328F080918C038F4FBD
:1010900080938C038F918FBF8F911895CF92DF92A1
:1010A000EF92FF926B017C0119D09B01C114D10416
:1010B000E104F10471F012D0621B730B683E7340BF
:1010C000A8F381E0C81AD108E108F10828513C4F83
:1010D000EDCFFF90EF90DF90CF9008950FB6F8948A
:1010E00066B515B270918A0380918B0390918C0341
:1010F0000FBE10FE05C06F3F19F07C5F8F4F9F4FF2
:1011000011240024660F001C660F001C702908952E
:101110008091E80080FFFCCF08958091D80087FF80
:1011200002C085FF56C081E08093D70080EA80939B
:10113000D80082E189BD09B400FEFDCF80E980932B
:10114000D8001092E0001092BF031092BE031092DC
:10115000BD031092B5031092B6031092B70310921C
:10116000B8031092B9031092BA031092BB03109205
:10117000BC0381E08093B4039DE79093B303109286
:10118000B2031092B1031092B0038093AF03109298
:10119000A3031092A4031092A5031092A6038FE05C
:1011A0008093A70390E29093A80380E88093A9031B
:1011B0001092AA0322E02093AB0328E02093AC0313
:1011C0009093AD038093AE031092E1008DE0809385
:1011D000E20008951F920F920FB60F9211242F93E1
:1011E0003F934F935F936F937F938F939F93AF93AF
:1011F000BF93EF93FF939091E1001092E10093FF72
:1012000011C01092E90081E08093EB001092EC0095
:1012100082E38093ED0088E08093F0001092BF039A
:101220001092BD0392FF47C08091BF03882309F449
:1012300042C080919103882359F08150809391039B
:10124000811106C084E08093E9008AE38093E8007E
:1012500080919003882331F0815080939003811115
:1012600001C0B6DE8091B303882329F180918E03FB
:101270008F5F80938E038370F1F481E08093E900A7
:101280008091E80085FF17C08091B2038F5F809343
:10129000B2032091B30382130EC01092B203E5EBA8
:1012A000F3E088E08E0F21912093F1008E13FBCFA5
:1012B0008AE38093E80090FF0CC080E18093E20015
:1012C0001092BF0381E08093BE0380EA8093D80030
:1012D00019BC8091BE03882379F094FF0DC082E190
:1012E00089BD09B400FEFDCF80E98093D8008DE070
:1012F0008093E2001092BE03FF91EF91BF91AF91F6
:101300009F918F917F916F915F914F913F912F911D
:101310000F900FBE0F901F9018951F920F920FB64F
:101320000F921124EF92FF920F931F932F933F93ED
:101330004F935F936F937F938F939F93AF93BF93DD
:10134000CF93EF93FF931092E9008091E80083FF21
:10135000A4C1C091F1008091F1000091F1001091C1
:10136000F100E090F100F090F1002091F100309157
:10137000F10092EF9093E800863009F03FC08DE0D5
:10138000EEE0F1E0459155914017510711F0359687
:1013900015C0459155914E155F0511F033960EC05D
:1013A0004591559184912F3F310519F010F02FEFA1
:1013B00030E0281708F4822F3EEF08C0815011F763
:1013C0006CC1891B3093E8008823A9F09091E80054
:1013D000292F2570D9F392FD63C1982F813408F02D
:1013E00090E4292F222369F3FA0145914093F100FB
:1013F000AF012150F7CF903449F352C1853041F409
:101400008EEF8093E80084DE00680093E30048C11B
:101410008930F1F4C111BFC00093BF031092BD0326
:10142000109291038EEF8093E80081E0EFE6F3E005
:1014300021E08093E9002093EB0095919093EC00DC
:1014400095919093ED008F5F873099F78EE19EC064
:10145000883039F4C03809F09EC05ADE8091BF034D
:10146000FCC0813279F4C13A09F0B6C051DEECE239
:10147000F1E087E08E0F90819093F10031968E130A
:10148000FACF07C1803209F03EC0C13209F083C0F3
:101490008091E80082FFFCCFECE2F1E087E08E0F64
:1014A0009091F100908331968E13FACF8BEF809359
:1014B000E8008EEF8093E80080912C0190912D013F
:1014C000A0912E01B0912F0186389105A105B1059B
:1014D00021F48FE080939003E3C086399105A10544
:1014E000B10509F0DDC084E08093E9009FEF8091B1
:1014F000EE00837039F09093E8008091E80082FD5F
:10150000FCCFF5CF82DD823231F4C13209F043C025
:101510000093BD0304C0833221F4C132E1F5F8DD4C
:10152000B8C0811111C0F4DDC23851F4E092E90075
:101530008091EB0085FB882780F91092E90001C0BB
:1015400080E08093F10081C0982F9D7F913019F544
:10155000C23009F50115110509F060C02E2D2F7755
:101560009FEF920F963008F059C09EEF9093E800DD
:101570002093E900833009F490C089E18093EB0067
:1015800081E090E001C0880F2A95EAF78093EA0095
:101590001092EA0085C092E0E916F10409F042C019
:1015A000C13AF1F4813059F4B3DDE5EBF3E088E0C2
:1015B0008E0F91919093F1008E13FBCF6AC0823011
:1015C00021F4A6DD8091B30348C0833009F065C0E3
:1015D0009FDD8091B40341C092E0E916F10411F55A
:1015E000C13209F05AC0893061F48091E80082FF6D
:1015F000FCCF8091F1008093B1038BEF8093E800E2
:1016000048C08A3029F41093B3031092B20341C04A
:101610008B3009F042C00093B4033BC092E0E9165E
:10162000F104D9F193E0E916F10409F5C13AC1F4E6
:10163000813071F46DDD8091B0038093F1001092E0
:10164000F1001092F1001092F1001092F10021C00F
:10165000833019F55DDD8091AF038093F10019C0EF
:10166000C132D9F48B30C9F40093AF0312C094E0B7
:10167000E916F10491F4C13A81F4813071F448DD46
:10168000E3EAF3E08CE08E0F91919093F1008E13DA
:10169000FBCF8EEF8093E80003C081E28093EB00E4
:1016A000FF91EF91CF91BF91AF919F918F917F91DA
:1016B0006F915F914F913F912F911F910F91FF90EB
:1016C000EF900F900FBE0F901F901895AFDA0E9409
:1016D000620373DAFECF80E090E008950895FC0184
:1016E0008FB7F8949091BF03911102C090E010C0A1
:1016F00093E09093E9009091F200911109C020913C
:10170000E80022FFF3CF25FDF1CF2BE62093E80080
:101710008FBF2085318537FD03C09F3F09F09F5F54
:10172000892F90E00895CF93DF93EC018885998508
:1017300097FF09C0E881F9810284F385E02DCE018D
:1017400009959987888788859985DF91CF91089534
:101750002091BF03222371F02FB7F89433E0309328
:10176000E9004BE63091E80035FF03C04093E80004
:10177000F9CF2FBF2FEF3FEFFC013187208708956E
:10178000FC012085318537FD07C04FEF5FEF5187A2
:101790004087C901992708959FB7F8948091BF03A6
:1017A000882369F083E08093E9002BE68091E800CC
:1017B00085FD09C082FF03C02093E800F7CF9FBFDB
:1017C0008FEF9FEF08958091F1002091E80025FDB3
:1017D00003C02BE62093E8009FBF90E00895DF92BE
:1017E000EF92FF920F931F93CF93DF938C01EB0146
:1017F0008091BF03882371F07FB7F89484E08093D1
:10180000E90080918F03882369F08091E80085FDCD
:1018100007C07FBF81E0F801828320E030E0D1C0C3
:1018200010928F0320E030E064E080E4F82EA1EF16
:10183000B0E09AE3E92EE3E0DE2E4115510509F40C
:10184000BFC08091E400815F9091E80095FD16C0D3
:101850007FBF9091E400981304C081E080938F03D0
:1018600005C09091BF03911104C081E0F80182830B
:10187000A8C07FB7F8946093E900E6CF8091F200AA
:101880009F2D981BE92FF0E04E175F0708F4942F67
:10189000E92FF0E04E1B5F0B2E0F3F1FE0E4E91B2A
:1018A000E03428F4EE0FFF27E85AF34F099480C084
:1018B00099919C9399919C9399919C9399919C93C4
:1018C00099919C9399919C9399919C9399919C93B4
:1018D00099919C9399919C9399919C9399919C93A4
:1018E00099919C9399919C9399919C9399919C9394
:1018F00099919C9399919C9399919C9399919C9384
:1019000099919C9399919C9399919C9399919C9373
:1019100099919C9399919C9399919C9399919C9363
:1019200099919C9399919C9399919C9399919C9353
:1019300099919C9399919C9399919C9399919C9343
:1019400099919C9399919C9399919C9399919C9333
:1019500099919C9399919C9399919C9399919C9323
:1019600099919C9399919C9399919C9399919C9313
:1019700099919C9399919C9399919C9399919C9303
:1019800099919C9399919C9399919C9399919C93F3
:1019900099919C9399919C9399919C9399919C93E3
:1019A00099919C9399919C9399919C9399919C93D3
:1019B0008091E80085FFE092E800D09291033DCF4E
:1019C0007FBFC901DF91CF911F910F91FF90EF90E1
:1019D000DF9008952FEF3FEFFC01318720879DDBDB
:1019E0000FB6F8948091860390918703A0918803A5
:1019F000B09189030FBE9C018091BF03882329F019
:101A000068EC70E080E090E049CB8091BE038823D1
:101A100001F10FB6F8948091860390918703A0910D
:101A20008803B09189030FBE4091BE03442389F01F
:101A30000FB6F89440918603509187036091880314
:101A4000709189030FBE481B590B4B3F510560F342
:101A500011C00FB6F8948091860390918703A091EE
:101A60008803B09189030FBE821B930B853C99407C
:101A700008F4C2CF08956032710540F46A307105F0
:101A800069F06B30710561F48BE20895603871057F
:101A900038F4FB01E55AFC4F8491089588E20895DB
:101AA00080E008958091BF03882309F441C08FB777
:101AB000F89491E09093E9009091E4009E5C21E01D
:101AC0003091E80035FD0EC08FBF8091BF038823A1
:101AD00079F18091E400891759F18FB7F894209338
:101AE000E900EECF9091B5039093F1009091B60389
:101AF0009093F1009091B7039093F1009091B80307
:101B00009093F1009091B9039093F1009091BA03F2
:101B10009093F1009091BB039093F1009091BC03DE
:101B20009093F1009AE39093E8001092B2038FBF74
:101B30000895CF93DF93EC0166FF02C082E001C0FD
:101B400080E08093B5031092B6036F736093B70380
:101B50001092B8031092B9031092BA031092BB030B
:101B60001092BC03CE019EDF1092B5031092B70312
:101B7000CE01DF91CF9196CF6111DBCF0895CF9346
:101B8000DF93EC0167FD03C01B8270E00CC0603C7A
:101B9000D8F46F738B81813061F41B828C819D81BD
:101BA0009C01262BB901CE0166DF682FCE01E4DF50
:101BB00020C08230F1F430E4639FB00111248C81A5
:101BC0009D81682B792B07C0603E48F46F7180E4DB
:101BD000689FB00111247D836C8381E009C0603F60
:101BE00030F46295607F1C826D8382E001C08FEFCC
:101BF0008B8381E090E0DF91CF910895DC01442355
:101C000069F09091B503842F8923841739F0942BC0
:101C10009093B5036623F9F091E003C06623E9F0E1
:101C200090E0E7EBF3E086E08E0F2191261789F034
:101C30008E13FBCF22E030E0F901EB54FC4F8081A2
:101C4000811102C0608307C02F5F3F4F28303105EC
:101C500099F7992311F0CD0125CF0895CF93DF9304
:101C6000EC01272F3327223CB8F0203E60F46F733D
:101C700077272F71332786E0220F331F8A95E1F7EC
:101C8000622B732B09C0203F11F440E010C0203EAE
:101C900091F4462F60E00BC0CE01EDDE882359F0B1
:101CA00086FF02C042E001C040E0682F6F73CE01A2
:101CB000DF91CF91A3CFDF91CF9108959C01442371
:101CC00079F09091B503842F892351F040954923F1
:101CD0004093B503611102C0C901E4CE91E003C095
:101CE000662379F090E0E7EBF3E086E08E0F408129
:101CF000461302C0108291E031968E13F8CF9111F5
:101D0000EBCF0895CF93DF93EC01272F3327223CAD
:101D1000B8F0203E60F46F7377272F71332786E089
:101D2000220F331F8A95E1F7622B732B09C0203FE6
:101D300011F440E010C0203E91F4462F60E00BC04B
:101D4000CE0199DE882359F086FF02C042E001C02F
:101D500040E0682F6F73CE01DF91CF91AFCFDF915D
:101D6000CF9108959C019091B503E7EBF3E086E0F5
:101D70008E0F4081942B11928E13FBCF992321F06B
:101D80001092B503C9018ECE0895E9E9F3E08AE027
:101D9000DF011D928A95E9F788EE93E0A0E0B0E0BC
:101DA00083839483A583B6838FE492E091838083B9
:101DB000E3E9F3E086E0DF011D928A95E9F781E629
:101DC00092E091838083109292030895CF92DF92E4
:101DD000EF92FF920F931F93CF93DF936C01EB0170
:101DE0007B01E40EF51E00E010E0CE15DF0561F08A
:101DF0006991D601ED91FC910190F081E02DC60131
:101E00000995080F191FF1CFC801DF91CF911F91DC
:101E10000F91FF90EF90DF90CF900895A1E21A2EDE
:101E2000AA1BBB1BFD010DC0AA1FBB1FEE1FFF1F7E
:101E3000A217B307E407F50720F0A21BB30BE40BCE
:101E4000F50B661F771F881F991F1A9469F7609515
:101E50007095809590959B01AC01BD01CF010895CF
:101E6000EE0FFF1F0590F491E02D0994F894FFCF39
:101E700000050E21406DACFF140000000A000000B8
:101E8000010002000300040005000600070008002E
:101E900009001100120013001400150000E10000F9
:101EA0000000084040404040404040404020100476
:101EB0000110028020080220080280100140100456
:101EC00001402000000008040000000000000000A5
:101ED00000000000000000000001010202020200F8
:101EE00000000101010202020201010000000101E3
:101EF0000000001010101010101010101001020837
:101F00002008010410010401041001080208200245
:101F10000802040000001020000000030303030374
:101F20000303030303000000000102020203030095
:101F3000000001010202020303010100000001018F
:101F40000000000101010101010101010140100433
:101F50000108024010040140080240080120080264
:101F60000120100000000804000000000000000034
:101F70000000000000010101010203040404040147
:101F8000010102020304040405020200000003032D
:101F900000000031323334353637383930717765E7
:101FA000727475696F705B61736466676A6B6C3BB2
:101FB0002763760000006E6D00000000000000182E
:101FC00002EF0B6B0BA80B6F0BC00B930B00000009
:0A1FD00000BF0DE60E6B0B6E0B0058
:00000001FF
